:020000040800F2
:1000000000000220390D0008DD0C0008E90C000892
:10001000F10C0008F90C0008010D000800000000B8
:10002000000000000000000000000000090D0008B2
:10003000150D000800000000210D00082D0D00081E
:10004000910D0008910D0008910D0008910D000818
:10005000910D0008910D0008910D0008910D000808
:10006000910D0008910D0008910D0008910D0008F8
:10007000910D0008910D0008910D0008910D0008E8
:10008000910D0008910D0008910D0008910D0008D8
:10009000910D0008910D0008910D0008910D0008C8
:1000A000910D0008910D0008910D0008910D0008B8
:1000B000910D0008910D0008910D0008910D0008A8
:1000C000910D0008910D0008910D0008910D000898
:1000D000910D0008910D0008910D0008910D000888
:1000E000910D0008910D0008910D0008910D000878
:1000F000910D0008910D0008910D0008910D000868
:10010000910D0008910D0008910D0008910D000857
:10011000910D0008910D0008910D0008910D000847
:10012000910D0008910D0008910D0008910D000837
:10013000910D0008910D0008910D0008910D000827
:10014000910D0008910D0008910D0008910D000817
:10015000910D0008910D0008910D0008910D000807
:10016000910D0008910D0008910D0008910D0008F7
:10017000910D0008910D0008910D0008910D0008E7
:08018000910D0008910D00082B
:1001880010B5054C237833B9044810B10448AFF3CF
:1001980000800121217010BD040000200000000033
:1001A800E428000808B5064B1BB106480649AFF31A
:1001B80000800648016811B1054A02B1904708BDA0
:1001C80000000000E42800080800002004000020C7
:1001D8000000000081F0004102E000BF83F000430E
:1001E80030B54FEA41044FEA430594EA050F08BFCA
:1001F80090EA020F1FBF54EA000C55EA020C7FEA8E
:10020800645C7FEA655C00F0E2804FEA5454D4EB0A
:100218005555B8BF6D420CDD2C4480EA020281EAD4
:10022800030382EA000083EA010180EA020281EA0C
:100238000303362D88BF30BD11F0004F4FEA01315E
:100248004FF4801C4CEA113102D0404261EB41016D
:1002580013F0004F4FEA03334CEA133302D05242F3
:1002680063EB430394EA050F00F0A780A4F10104AF
:10027800D5F1200E0DDB02FA0EFC22FA05F28018E9
:1002880041F1000103FA0EF2801843FA05F35941CF
:100298000EE0A5F120050EF1200E012A03FA0EFC4E
:1002A80028BF4CF0020C43FA05F3C01851EBE37178
:1002B80001F0004507D54FF0000EDCF1000C7EEB95
:1002C80000006EEB0101B1F5801F1BD3B1F5001FD3
:1002D8000CD349085FEA30004FEA3C0C04F10104F2
:1002E8004FEA445212F5800F80F09A80BCF1004F1B
:1002F80008BF5FEA500C50F1000041EB045141EA9D
:10030800050130BD5FEA4C0C404141EB010111F49D
:10031800801FA4F10104E9D191F0000F04BF014648
:100328000020B1FA81F308BF2033A3F10B03B3F126
:1003380020020CDA0C3208DD02F1140CC2F10C02B6
:1003480001FA0CF021FA02F10CE002F11402D8BF14
:10035800C2F1200C01FA02F120FA0CFCDCBF41EAE0
:100368000C019040E41AA2BF01EB0451294330BDAF
:100378006FEA04041F3C1CDA0C340EDC04F114048C
:10038800C4F1200220FA04F001FA02F340EA030063
:1003980021FA04F345EA030130BDC4F10C04C4F1A9
:1003A800200220FA02F001FA04F340EA0300294689
:1003B80030BD21FA04F0294630BD94F0000F83F4D3
:1003C800801306BF81F480110134013D4EE77FEAB6
:1003D800645C18BF7FEA655C29D094EA050F08BF02
:1003E80090EA020F05D054EA000C04BF19461046E3
:1003F80030BD91EA030F1EBF0021002030BD5FEA27
:10040800545C05D14000494128BF41F0004130BD4E
:1004180014F580043CBF01F5801130BD01F00045A2
:1004280045F0FE4141F470014FF0000030BD7FEA15
:10043800645C1ABF194610467FEA655C1CBF0B4610
:10044800024650EA013406BF52EA033591EA030F27
:1004580041F4002130BD00BF90F0000F04BF00211F
:10046800704730B54FF4806404F132044FF0000552
:100478004FF0000150E700BF90F0000F04BF0021CB
:10048800704730B54FF4806404F1320410F0004531
:1004980048BF40424FF000013EE700BF42004FEA2C
:1004A800E2014FEA31014FEA02701FBF12F07F43A9
:1004B80093F07F4F81F06051704792F0000F14BFA6
:1004C80093F07F4F704730B54FF4607401F00045EA
:1004D80021F0004120E700BF50EA010208BF704741
:1004E80030B54FF000050AE050EA010208BF704736
:1004F80030B511F0004502D5404261EB41014FF49F
:10050800806404F132045FEA915C3FF4DCAE4FF0A2
:1005180003025FEADC0C18BF03325FEADC0C18BF89
:10052800033202EBDC02C2F1200300FA03FC20FADA
:1005380002F001FA03FE40EA0E0021FA02F1144427
:10054800C1E600BF70B54FF0FF0C4CF4E06C1CEA3C
:1005580011541DBF1CEA135594EA0C0F95EA0C0FB1
:1005680000F0DEF82C4481EA030621EA4C5123EA24
:100578004C5350EA013518BF52EA033541F4801153
:1005880043F4801338D0A0FB02CE4FF00005E1FB06
:1005980002E506F00042E0FB03E54FF00006E1FB50
:1005A80003569CF0000F18BF4EF0010EA4F1FF0493
:1005B800B6F5007F64F5407404D25FEA4E0E6D41D3
:1005C80046EB060642EAC62141EA55514FEAC520E4
:1005D80040EA5E504FEACE2EB4F1FD0C88BFBCF560
:1005E800E06F1ED8BEF1004F08BF5FEA500E50F111
:1005F800000041EB045170BD06F0004646EA0101D7
:1006080040EA020081EA0301B4EB5C04C2BFD4EB08
:100618000C0541EA045170BD41F480114FF0000E01
:10062800013C00F3AB8014F1360FDEBF002001F06F
:10063800004170BDC4F10004203C35DA0C341BDCE9
:1006480004F11404C4F1200500FA05F320FA04F0BB
:1006580001FA05F240EA020001F0004221F00041EF
:1006680010EBD37021FA04F642EB06015EEA430E62
:1006780008BF20EAD37070BDC4F10C04C4F1200592
:1006880000FA04F320FA05F001FA04F240EA020045
:1006980001F0004110EBD37041F100015EEA430E16
:1006A80008BF20EAD37070BDC4F1200500FA05F236
:1006B8004EEA020E20FA04F301FA05F243EA0203B5
:1006C80021FA04F001F0004121FA04F220EA0200C4
:1006D80000EBD3705EEA430E08BF20EAD37070BD0A
:1006E80094F0000F0FD101F00046400041EB0101EA
:1006F80011F4801F08BF013CF7D041EA060195F0CC
:10070800000F18BF704703F00046520043EB030385
:1007180013F4801F08BF013DF7D043EA0603704772
:1007280094EA0C0F0CEA135518BF95EA0C0F0CD07D
:1007380050EA410618BF52EA4306D1D181EA0301C3
:1007480001F000414FF0000070BD50EA410606BFBD
:100758001046194652EA430619D094EA0C0F02D102
:1007680050EA013613D195EA0C0F05D152EA033647
:100778001CBF104619460AD181EA030101F0004165
:1007880041F0FE4141F470014FF0000070BD41F0AE
:10079800FE4141F4780170BD70B54FF0FF0C4CF488
:1007A800E06C1CEA11541DBF1CEA135594EA0C0FA7
:1007B80095EA0C0F00F0A7F8A4EB050481EA030EF4
:1007C80052EA03354FEA013100F088804FEA0333DB
:1007D8004FF0805545EA131343EA12634FEA0222A9
:1007E80045EA111545EA10654FEA00260EF000416A
:1007F8009D4208BF964244F1FD0404F5407402D2BC
:100808005B084FEA3202B61A65EB03055B084FEA4C
:1008180032024FF480104FF4002CB6EB020E75EB49
:10082800030E22BFB61A754640EA0C005B084FEA71
:100838003202B6EB020E75EB030E22BFB61A7546EE
:1008480040EA5C005B084FEA3202B6EB020E75EB39
:10085800030E22BFB61A754640EA9C005B084FEAB1
:100868003202B6EB020E75EB030E22BFB61A7546BE
:1008780040EADC0055EA060E18D04FEA051545EAAD
:1008880016754FEA06164FEAC30343EA52734FEA56
:10089800C2025FEA1C1CC0D111F4801F0BD141EACF
:1008A80000014FF000004FF0004CB6E711F4801F34
:1008B80004BF01430020B4F1FD0C88BFBCF5E06F14
:1008C8003FF6AFAEB5EB030C04BFB6EB020C5FEA24
:1008D800500C50F1000041EB045170BD0EF0004E79
:1008E8004EEA113114EB5C04C2BFD4EB0C0541EAAB
:1008F800045170BD41F480114FF0000E013C90E6A8
:1009080045EA060E8DE60CEA135594EA0C0F08BF6B
:1009180095EA0C0F3FF43BAF94EA0C0F0AD150EA6A
:1009280001347FF434AF95EA0C0F7FF425AF1046FD
:1009380019462CE795EA0C0F06D152EA03353FF425
:10094800FDAE1046194622E750EA410618BF52EAA2
:1009580043067FF4C5AE50EA41047FF40DAF52EA76
:1009680043057FF4EBAE12E74FF0FF3C06E000BF13
:100978004FF0010C02E000BF4FF0010C4DF804CD20
:100988004FEA410C7FEA6C5C4FEA430C18BF7FEAE0
:100998006C5C1BD001B050EA410C0CBF52EA430C0E
:1009A80091EA030F02BF90EA020F0020704710F18E
:1009B800000F91EA030F58BF994208BF90422CBF1D
:1009C800D8176FEAE37040F0010070474FEA410C16
:1009D8007FEA6C5C02D150EA013C07D14FEA430C34
:1009E8007FEA6C5CD6D152EA033CD3D05DF8040BA5
:1009F800704700BF8446104662468C4619466346D7
:100A080000E000BF01B5FFF7B7FF002848BF10F1AD
:100A1800000F01BD4DF808EDFFF7F4FF0CBF0120F2
:100A280000205DF808FB00BF4DF808EDFFF7EAFF6E
:100A380034BF012000205DF808FB00BF4DF808ED29
:100A4800FFF7E0FF94BF012000205DF808FB00BF1E
:100A58004DF808EDFFF7CEFF94BF012000205DF8A8
:100A680008FB00BF4DF808EDFFF7C4FF34BF0120B5
:100A780000205DF808FB00BF4A0011D212F50012F1
:100A880011D20DD56FF47873B3EB62520ED44FEADE
:100A9800C12343F0004343EA505323FA02F070475E
:100AA8004FF00000704750EA013002D14FF0FF309C
:100AB80070474FF00000704780B500AF4FF46053A7
:100AC800C4F202034FF46052C4F20202126842F008
:100AD80001021A604FF46053C4F202034FF000029F
:100AE8009A604FF46053C4F202034FF46052C4F2A8
:100AF8000202126822F0847222F480321A604FF4E3
:100B08006053C4F2020343F21002C2F200425A6078
:100B18004FF46053C4F202034FF46052C4F202026D
:100B2800126822F480221A604FF46053C4F2020360
:100B38004FF00002DA6000F009F84FF46D43CEF28E
:100B480000034FF000629A6080BD00BF80B483B09C
:100B580000AF4FF000037B604FF000033B604FF4A1
:100B68006053C4F202034FF46052C4F202021268E6
:100B780042F480321A604FF46053C4F202031B68D7
:100B880003F400333B607B6803F101037B603B683F
:100B9800002B03D17B68B3F5A06FECD14FF4605301
:100BA800C4F202031B6803F40033002B03D04FF098
:100BB80001033B6002E04FF000033B603B68012B00
:100BC80040F082804FF46053C4F202034FF4605245
:100BD800C4F20202126C42F080521A644FF4E043ED
:100BE800C4F200034FF4E042C4F20002126842F477
:100BF80040421A604FF46053C4F202034FF460524B
:100C0800C4F2020292689A604FF46053C4F202037D
:100C18004FF46052C4F20202926842F400429A60B1
:100C28004FF46053C4F202034FF46052C4F202025C
:100C3800926842F4A0529A604FF46053C4F20203DF
:100C480045F21942C0F240725A604FF46053C4F240
:100C580002034FF46052C4F20202126842F080723A
:100C68001A6000BF4FF46053C4F202031B6803F01C
:100C78000073002BF6D04FF47053C4F2020340F215
:100C880005721A604FF46053C4F202034FF46052C5
:100C9800C4F20202926822F003029A604FF4605391
:100CA800C4F202034FF46052C4F20202926842F0A6
:100CB80002029A6000BF4FF46053C4F202039B68BB
:100CC80003F00C03082BF6D107F10C07BD4680BCD6
:100CD800704700BF80B400AFBD4680BC704700BFFE
:100CE80080B400AFFEE700BF80B400AFFEE700BFEE
:100CF80080B400AFFEE700BF80B400AFFEE700BFDE
:100D080080B400AFBD4680BC704700BF80B400AF60
:100D1800BD4680BC704700BF80B400AFBD4680BCF4
:100D2800704700BF80B400AFBD4680BC704700BFAD
:100D3800DFF83CD0002100F004B80E4B5B5843505C
:100D480004310D480D4B42189A42FFF4F6AF0C4A95
:100D580000F003B8002342F8043B0A4B9A42FFF420
:100D6800F9AFFFF7A9FE01F093FD00F031F97047E4
:100D780000000220042900080000002004000020D0
:100D88000400002068000020FFF7FEBF80B58CB08B
:100D980000AF40F20003C2F200031B684FEA53227F
:100DA8004BF22323C0F24C03A3FB02134FEAD313E5
:100DB8009BB203F1FF33FB854FF00003BB854FF077
:100DC80006004FF0010101F09BF84FF48060C4F277
:100DD80002004FF004014FF0020201F0A3F94FF4B2
:100DE8008060C4F202004FF006014FF0020201F0E9
:100DF80099F94FF48060C4F202004FF008014FF0F7
:100E0800020201F08FF94FF040037B624FF00203BA
:100E180087F828304FF0030387F829304FF0000394
:100E280087F82A304FF0010387F82B3007F12403A5
:100E38004FF48060C4F20200194601F0B5F84FF48F
:100E480080737B624FF0020387F828304FF003036A
:100E580087F829304FF0000387F82A304FF0010354
:100E680087F82B3007F124034FF48060C4F20200A6
:100E7800194601F099F84FF010037B624FF0020316
:100E880087F828304FF0030387F829304FF0000324
:100E980087F82A304FF0010387F82B3007F1240335
:100EA8004FF48060C4F20200194601F07DF840F268
:100EB8009923FB61FB8D3B834FF000033B844FF08C
:100EC80000037B8307F118034FF48060C4F200002D
:100ED800194600F0EBFD07F118034FF40060C4F267
:100EE8000000194600F0E2FD4FF06003BB804FF0B0
:100EF8000103FB80BB8DFB604FF000033B8207F1D1
:100F080004034FF40060C4F20000194600F088FEA4
:100F18004FF40060C4F200004FF0080100F08EFFAB
:100F28004FF00103FB80BB8DFB6007F104034FF416
:100F38000060C4F20000194600F0F0FE4FF40060B3
:100F4800C4F200004FF0080100F094FF4FF0600376
:100F5800BB804FF00103FB80BB8DFB604FF00003AB
:100F68003B8207F104034FF48060C4F20000194685
:100F780000F056FE4FF48060C4F200004FF0080104
:100F880000F05CFF4FF48060C4F200004FF00101F4
:100F980000F006FE4FF40060C4F200004FF00101BB
:100FA80000F0FEFD4FF48060C4F200004FF0010134
:100FB80000F016FE4FF40060C4F200004FF001018B
:100FC80000F00EFE07F13007BD4680BD00000000AE
:100FD80080B59AB000AF00F0F9FBFFF7D7FE4FF4E9
:100FE80080004FF0010100F061FF4FF480704FF076
:100FF800010100F0AFFF46F21040C4F2020001F018
:10100800E5F84FF000033B6042F24C03C4F20103E1
:101018007B6040F22803C2F20003BB604FF000037C
:10102800FB604FF005033B614FF000037B614FF419
:101038008063BB614FF40063FB614FF400533B6274
:101048004FF480737B624FF40033BB624FF00003B0
:10105800FB624FF001033B634FF000037B634FF0EB
:101068000003BB633B4646F21040C4F20200194637
:1010780001F0CEF946F21040C4F202004FF001012F
:1010880001F01EFA4FF00003FB634FF000033B64CE
:101098004FF000037B644FF00003BB6407F13C038F
:1010A800184601F085FA4FF00003FB644FF0010386
:1010B80087F850304FF0010387F851304FF00003A4
:1010C8007B654FF00003BB654FF00003FB654FF0F5
:1010D800050387F8603007F14C034FF40050C4F261
:1010E8000100194601F008FA4FF40050C4F201005B
:1010F8004FF008014FF001024FF0000301F0A2FA8F
:101108004FF40050C4F201004FF007014FF0020203
:101118004FF0000301F096FA4FF40050C4F20100BA
:101128004FF004014FF003024FF0000301F08AFA78
:101138004FF40050C4F201004FF00F014FF00402C9
:101148004FF0000301F07EFA4FF40050C4F20100A2
:101158004FF009014FF005024FF0000301F072FA59
:101168004FF40050C4F201004FF0010101F074FB8C
:101178004FF40050C4F201004FF0010101F050FBA0
:101188004FF40050C4F201004FF0010101F03EFAA3
:101198004FF40050C4F2010001F032FB40F2540356
:1011A800C2F200034FF060021A8040F25403C2F208
:1011B80000034FF001025A8040F25403C2F20003C8
:1011C8004FF000029A814FF4E050C4F202004FF051
:1011D800400100F099FF4FF40060C4F202004FF4A0
:1011E800004100F083FF4FF4E050C4F202004FF0DA
:1011F800200100F089FF4FF40060C4F202004FF4B0
:10120800804100F081FF4FF48060C4F202004FF487
:10121800006100F06BFF40F22803C2F200035B8814
:101228009BB21846FFF728F902460B4610461946A6
:101238001FA3D3E90023FFF785F902460B461046A2
:1012480019461DA3D3E90023FFF7A6FA02460B4669
:1012580010461946FFF710FC024640F23803C2F266
:1012680000035A6040F23803C2F200035B68184674
:10127800FFF7F2F802460B46104619464FF00002F7
:101288004FF00003C3F6F073FFF7D8FB0346002BBB
:10129800B9D14FF48060C4F202004FF4006100F04D
:1012A80033FF4FF000037B6610E000BFAFF3008010
:1012B8006666666666660A400000000000FEAF408B
:1012C80000F062FA7B6E03F101037B667B6E042BF0
:1012D800F6DD4FF00000C4F202004FF0400100F0CC
:1012E80005FF00F051FA4FF00000C4F202004FF081
:1012F800200100F0FBFE00F047FA4FF48060C4F2D2
:1013080002004FF4806100F0F1FE00F03DFA4FF466
:101318008060C4F202004FF4006100F0E7FE00F0C4
:1013280033FA4FF40060C4F202004FF0010100F0FC
:10133800DDFE00F029FA4FF40060C4F202004FF01D
:10134800010100F0E1FE4FF48060C4F202004FF4A6
:10135800006100F0D9FE4FF48060C4F202004FF43F
:10136800806100F0D1FE4FF00000C4F202004FF09F
:10137800200100F0C9FE4FF00000C4F202004FF057
:10138800400100F0C1FE00F0FFF94FF40060C4F224
:1013980002004FF0010100F0A9FE4FF48060C4F292
:1013A80002004FF4006100F0A1FE4FF48060C4F227
:1013B80002004FF4806100F099FE4FF00000C4F283
:1013C80002004FF0200100F091FE4FF00000C4F23F
:1013D80002004FF0400100F089FE00F0D5F94FF40B
:1013E8000060C4F202004FF0010100F08DFE4FF4DE
:1013F8008060C4F202004FF4006100F085FE4FF4F3
:101408008060C4F202004FF4806100F07DFE4FF06E
:101418000000C4F202004FF0200100F075FE4FF00A
:101428000000C4F202004FF0400100F06DFE4FF4DE
:10143800E050C4F202004FF0400100F065FE4FF4A6
:101448000060C4F202004FF4004100F04FFE4FF478
:10145800E050C4F202004FF0200100F055FE4FF4B6
:101468000060C4F202004FF4804100F04DFE40F2EB
:101478002803C2F200031B889BB21846FEF7FCFF44
:1014880002460B4610461946BBA3D3E90023FFF7D3
:1014980059F802460B4610461946B9A3D3E900236A
:1014A800FFF77AF902460B4610461946FFF7E4FAA9
:1014B800024640F23803C2F200031A6040F22803E1
:1014C800C2F200035B889BB21846FEF7D5FF0246BE
:1014D8000B4610461946A8A3D3E90023FFF732F8B4
:1014E80002460B4610461946A5A3D3E90023FFF789
:1014F80053F902460B4610461946FFF7BDFA024655
:1015080040F23803C2F200035A6040F22803C2F2E4
:1015180000039B889BB21846FEF7AEFF02460B46B7
:101528001046194694A3D3E90023FFF70BF80246A7
:101538000B461046194692A3D3E90023FFF72CF96E
:1015480002460B4610461946FFF796FA024640F245
:101558003803C2F200039A6040F22803C2F2000383
:10156800DB889BB21846FEF787FF02460B461046FB
:10157800194681A3D3E90023FEF7E4FF02460B4690
:10158800104619467EA3D3E90023FFF705F9024662
:101598000B4610461946FFF76FFA024640F2380329
:1015A800C2F20003DA6040F22803C2F200031B898A
:1015B8009BB21846FEF760FF02460B4610461946D6
:1015C8006DA3D3E90023FEF7BDFF02460B46104684
:1015D80019466BA3D3E90023FFF7DEF802460B4652
:1015E80010461946FFF748FA024640F23403C2F2A1
:1015F80000031A6040F23803C2F200035B68184621
:10160800FEF72AFF02460B46104619464FF0000225
:101618004FF00003C3F6F073FFF71AFA0346002BE6
:101628001DD04FF40060C4F202004FF0010100F039
:101638005DFD40F22003C2F200034FF000021A8061
:1016480040F22203C2F200034FF000021A8040F277
:101658002403C2F200034FF000021A802CE04FF47A
:101668000060C4F202004FF0010100F04DFD4FF49C
:101678008060C4F202004FF4007100F037FD4FF4AF
:101688008060C4F202004FF0800100F03DFD40F29E
:101698002003C2F200034FF064021A8040F22203D2
:1016A800C2F200034FF064021A8040F22403C2F22F
:1016B80000034FF06F021A8040F22203C2F20003C7
:1016C8001B88312B07D84FF48060C4F202004FF01A
:1016D800800100F019FD40F22003C2F200031B88CC
:1016E800312B07D84FF48060C4F202004FF4007128
:1016F80000F00AFD40F22203C2F200031B881A46DA
:1017080040F25403C2F200039A604FF40060C4F23E
:10171800000040F25401C2F2000100F081FA40F2E8
:101728002003C2F200031B881A4640F25403C2F297
:1017380000039A604FF40060C4F2000040F25401C4
:10174800C2F2000100F0EAFA40F22403C2F20003F8
:101758001B881A4640F25403C2F200039A604FF401
:101768008060C4F2000040F25401C2F2000100F0AF
:1017780057FA7CE6AFF300806666666666660A40DE
:101788000000000000FEAF4080B483B000AF4FF00F
:1017980000037B6010E04FF000033B6003E03B6810
:1017A80003F101033B603A6840F2F3139A42F6DD15
:1017B8007B6803F101037B607A6840F2F3139A4275
:1017C800E9DD07F10C07BD4680BC704780B582B0E3
:1017D80000AF4FF087004FF0010100F067FB4FF0BA
:1017E80080033B604FF001033B714FF00003BB7176
:1017F8004FF00003FB714FF002037B713B464FF43F
:101808008060C4F20200194600F0CEFB4FF400736A
:101818003B604FF001033B714FF00003BB714FF089
:101828000003FB714FF002037B713B464FF480606D
:10183800C4F20200194600F0B7FB4FF040033B60CA
:101848004FF001033B714FF00003BB714FF00003F1
:10185800FB714FF002037B713B464FF00000C4F26E
:101868000200194600F0A0FB4FF020033B604FF048
:1018780001033B714FF00003BB714FF00003FB7194
:101888004FF002037B713B464FF00000C4F20200A8
:10189800194600F089FB4FF480633B604FF0010369
:1018A8003B714FF00003BB714FF00003FB714FF029
:1018B80002037B713B464FF48060C4F20200194674
:1018C80000F072FB4FF400633B604FF001033B7183
:1018D8004FF00003BB714FF00003FB714FF00203A0
:1018E8007B713B464FF48060C4F20200194600F059
:1018F8005BFB4FF001033B604FF001033B714FF07E
:101908000003BB714FF00003FB714FF002037B71C2
:101918003B464FF40060C4F20200194600F044FB55
:101928004FF480433B604FF001033B714FF00003DD
:10193800BB714FF00003FB714FF002037B713B4614
:101948004FF40060C4F20200194600F02DFB4FF07E
:1019580020033B604FF001033B714FF00003BB7164
:101968004FF00003FB714FF002037B713B464FF4CD
:10197800E050C4F20200194600F016FB4FF4004391
:101988003B604FF001033B714FF00003BB714FF018
:101998000003FB714FF002037B713B464FF400607C
:1019A800C4F20200194600F0FFFA4FF040033B6012
:1019B8004FF001033B714FF00003BB714FF0000380
:1019C800FB714FF002037B713B464FF4E050C4F2C9
:1019D8000200194600F0E8FA4FF400533B604FF05C
:1019E80000033B714FF00003BB714FF00003FB7124
:1019F8004FF002037B713B464FF40060C4F20200D3
:101A0800194600F0D1FA4FF001033B604FF0030391
:101A18003B714FF00003FB713B464FF48060C4F20A
:101A28000200194600F0C0FA4FF080033B604FF007
:101A380003033B714FF00003FB713B464FF000007E
:101A4800C4F20200194600F0AFFA4FF010033B60F1
:101A58004FF003033B714FF00003FB713B464FF01F
:101A68000000C4F20200194600F09EFA4FF020036D
:101A78003B604FF003033B714FF00003FB713B46A3
:101A88004FF40060C4F20200194600F08DFA4FF0DE
:101A980002033B603B464FF48060C4F202001946E3
:101AA80000F082FA07F10807BD4680BD80B485B012
:101AB80000AF786039604FF00003FB817B681B88BA
:101AC800FB817A684FF00003C4F201039A421FD0E9
:101AD8007A684FF48063C4F201039A4218D07B6895
:101AE800B3F1804F14D07A684FF48063C4F20003D6
:101AF8009A420DD07A684FF40063C4F200039A4208
:101B080006D07A684FF44063C4F200039A4208D1C1
:101B1800FB8923F07003FB813B685A88FB891343D8
:101B2800FB817A684FF48053C4F200039A420FD0C5
:101B38007A684FF4A053C4F200039A4208D0FB8994
:101B480023F44073FB813B681A89FB891343FB81AB
:101B58007B68FA891A803B685A687B68DA623B6856
:101B68001A887B681A857A684FF00003C4F201036B
:101B78009A4206D07A684FF48063C4F201039A420D
:101B880004D13B689B7A1A467B681A867B684FF0BB
:101B980001029A8207F11407BD4680BC704700BF56
:101BA80080B483B000AF78600B46FB70FB78002BE5
:101BB80008D07B681B889BB243F080039AB27B688D
:101BC8001A8007E07B681B889BB223F080039AB2D7
:101BD8007B681A8007F10C07BD4680BC704700BFC0
:101BE80080B483B000AF78600B46FB70FB78002BA5
:101BF80008D07B681B889BB243F001039AB27B68CC
:101C08001A8007E07B681B889BB223F001039AB215
:101C18007B681A8007F10C07BD4680BC704700BF7F
:101C280080B485B000AF786039604FF000037B81E5
:101C38004FF00003FB814FF00003BB817B681B8CD6
:101C48009BB223F001039AB27B681A847B681B8CD1
:101C5800FB817B689B88BB817B681B8B7B817B8935
:101C680023F070037B817B8923F003037B813B682E
:101C78001A887B8913437B81FB8923F00203FB814C
:101C88003B689A89FB891343FB813B685A88FB8927
:101C98001343FB817A684FF00003C4F201039A42B0
:101CA80006D07A684FF48063C4F201039A4223D1C4
:101CB800FB8923F00803FB813B68DA89FB8913431E
:101CC800FB81FB8923F00403FB813B689A88FB892D
:101CD8001343FB81BB8923F48073BB81BB8923F445
:101CE8000073BB813B681A8ABB891343BB813B687D
:101CF8005A8ABB891343BB817B68BA899A807B68FF
:101D08007A891A833B689A687B685A637B68FA8980
:101D18001A8407F11407BD4680BC704780B485B0AB
:101D280000AF786039604FF000037B814FF000030B
:101D3800FB814FF00003BB817B681B8C9BB223F4B3
:101D480080739AB27B681A847B681B8CFB817B68E2
:101D58009B88BB817B689B8B7B817B8923F070038D
:101D68007B817B8923F003037B813B681A887B890D
:101D780013437B81FB8923F40073FB813B689B89B8
:101D88004FEA03239AB2FB891343FB813B685B88C4
:101D98004FEA03239AB2FB891343FB817A684FF019
:101DA8000003C4F201039A4206D07A684FF48063B4
:101DB800C4F201039A422FD1FB8923F40063FB810B
:101DC8003B68DB894FEA03239AB2FB891343FB8103
:101DD800FB8923F48063FB813B689B884FEA0323DC
:101DE8009AB2FB891343FB81BB8923F48053BB81DF
:101DF800BB8923F40053BB813B681B8A4FEA03135A
:101E08009AB2BB891343BB813B685B8A4FEA0313D1
:101E18009AB2BB891343BB817B68BA899A807B6875
:101E28007A899A833B689A687B68DA637B68FA895F
:101E38001A8407F11407BD4680BC704780B485B08A
:101E480000AF78600B467B804FF00003FB817B6816
:101E58001B8BFB81FB8923F00803FB81FA897B88B4
:101E68001343FB817B68FA891A8307F11407BD467F
:101E780080BC704780B485B000AF78600B467B802B
:101E88004FF00003FB817B689B8BFB81FB8923F070
:101E98000803FB81FA897B881343FB817B68FA89F5
:101EA8009A8307F11407BD4680BC704780B483B09D
:101EB80000AF78600B46FB70FB78002B0CD04FF41A
:101EC8006053C4F202034FF46052C4F20202116B71
:101ED8007A680A431A630DE04FF46053C4F20203B0
:101EE8004FF46052C4F20202116B7A686FEA020280
:101EF8000A401A6307F10C07BD4680BC704700BF53
:101F080080B483B000AF78600B46FB70FB78002B81
:101F18000CD04FF46053C4F202034FF46052C4F281
:101F28000202116C7A680A431A640DE04FF4605398
:101F3800C4F202034FF46052C4F20202116C7A68D0
:101F48006FEA02020A401A6407F10C07BD4680BC1A
:101F5800704700BF80B483B000AF78600B46FB7059
:101F6800FB78002B0CD04FF46053C4F202034FF4FB
:101F78006052C4F20202516C7A680A435A640DE056
:101F88004FF46053C4F202034FF46052C4F20202E9
:101F9800516C7A686FEA02020A405A6407F10C072A
:101FA800BD4680BC704700BF80B487B000AF786082
:101FB80039604FF000037B614FF000033B614FF045
:101FC8000003FB604FF000037B6186E07B694FF004
:101FD800010202FA03F33B613B681A683B6913404C
:101FE800FB60FA683B699A4273D17B681A687B691F
:101FF8004FEA43034FF0030101FA03F36FEA0303C7
:102008001A407B681A607B681A683B681B79194616
:102018007B694FEA430301FA03F31A437B681A60AA
:102028003B681B79012B03D03B681B79022B34D109
:102038007B689A687B694FEA43034FF0030101FA12
:1020480003F36FEA03031A407B689A607B689A6817
:102058003B685B7919467B694FEA430301FA03F34E
:102068001A437B689A607B685A687B699BB24FF019
:10207800010101FA03F36FEA03031A407B685A600F
:102088007B685A683B689B7919467B699BB201FA61
:1020980003F39BB21A437B685A607B68DA687B69F2
:1020A8009BB24FEA43034FF0030101FA03F36FEACF
:1020B80003031A407B68DA607B68DA683B68DB797F
:1020C80019467B694FEA430301FA03F31A437B6815
:1020D800DA607B6903F101037B617B690F2B7FF673
:1020E80075AF07F11C07BD4680BC704780B483B04C
:1020F80000AF78600B467B807B687A881A8307F18B
:102108000C07BD4680BC704780B483B000AF7860D0
:102118000B467B807B687A885A8307F10C07BD469B
:1021280080BC704780B485B000AF786013460A461B
:102138007A807B704FF00003FB604FF00003BB60B8
:102148007A787B8803F007034FEA830302FA03F3E4
:10215800FB607B884FEAD3039BB21A467B884FEA21
:10216800D3039BB219467B6801F1080153F821108B
:102178007B8803F007034FEA83034FF00F0000FA50
:1021880003F36FEA030319407B6802F1080243F87E
:1021980022107B884FEAD3039BB21A467B6802F170
:1021A800080253F82220FB681343BB607B884FEA80
:1021B800D3039BB21A467B6802F10802B96843F858
:1021C800221007F11407BD4680BC704780B483B065
:1021D80000AF78607B681B6823F001027B681A6097
:1021E8007B684FF000021A607B684FF000025A606B
:1021F8007B684FF000029A607B684FF00002DA605B
:102208007B684FF000021A617B684FF021025A6127
:102218007A6846F21003C4F202039A4207D14FF4D7
:10222800C043C4F202034FF03D029A60EBE07A68C3
:1022380046F22803C4F202039A4207D14FF4C0437E
:10224800C4F202034FF474629A60DCE07A6846F2E2
:102258004003C4F202039A4207D14FF4C043C4F2C8
:1022680002034FF474129A60CDE07A6846F258037C
:10227800C4F202039A4207D14FF4C043C4F20203E6
:102288004FF074629A60BEE07A6846F27003C4F256
:1022980002039A4209D14FF4C043C4F202034FF03B
:1022A8003D02C2F20002DA60ADE07A6846F28803C5
:1022B800C4F202039A4209D14FF4C043C4F20203A4
:1022C8004FF47462C2F20002DA609CE07A6846F267
:1022D800A003C4F202039A4209D14FF4C043C4F2E6
:1022E80002034FF00002C2F23D02DA608BE07A6826
:1022F80046F2B803C4F202039A4207D14FF4C0432E
:10230800C4F202034FF03D52DA607CE07A6846F28C
:102318001043C4F202039A4207D14FF4C843C4F2EF
:1023280002034FF03D029A606DE07A6846F2284356
:10233800C4F202039A4207D14FF4C843C4F202031D
:102348004FF474629A605EE07A6846F24043C4F2E1
:1023580002039A4207D14FF4C843C4F202034FF470
:1023680074129A604FE07A6846F25843C4F2020346
:102378009A4207D14FF4C843C4F202034FF0746283
:102388009A6040E07A6846F27043C4F202039A42C7
:1023980009D14FF4C843C4F202034FF03D02C2F220
:1023A8000002DA602FE07A6846F28843C4F202033A
:1023B8009A4209D14FF4C843C4F202034FF474623D
:1023C800C2F20002DA601EE07A6846F2A043C4F264
:1023D80002039A4209D14FF4C843C4F202034FF0F2
:1023E8000002C2F23D02DA600DE07A6846F2B843B4
:1023F800C4F202039A4206D14FF4C843C4F202035E
:102408004FF03D52DA6007F10C07BD4680BC7047BB
:1024180080B485B000AF786039604FF00003FB608E
:102428007B681B68FB60FA6848F23F03CFF21C0325
:102438001340FB603B681A683B68DB681A433B68DB
:102448005B691A433B689B691A433B68DB691A431B
:102458003B681B6A1A433B685B6A1A433B689B6A82
:102468001A433B685B6B1A433B689B6B1343FA68E0
:102478001343FB607B68FA681A607B685B69FB60E2
:10248800FB6823F00703FB603B68DA6A3B681B6B59
:102498001343FA681343FB607B68FA685A613B6828
:1024A8001A697B685A603B685A687B689A603B681F
:1024B8009A687B68DA6007F11407BD4680BC7047EC
:1024C80080B483B000AF78600B46FB70FB78002BBC
:1024D80006D07B681B6843F001027B681A6005E040
:1024E8007B681B6823F001027B681A6007F10C0700
:1024F800BD4680BC704700BF80B485B000AF78602F
:1025080039604FF00003FB604FF00003FB727B68FB
:102518005B68FB60FB6823F0407323F48073FB6007
:102528003B681B794FEA03223B681B681343FA6830
:102538001343FB607B68FA685A607B689B68FB60A2
:10254800FA684FF2FD73CCF2FF031340FB603B685F
:102558001A693B68DB681A433B689B681A433B6807
:102568005B794FEA43031343FA681343FB607B68C4
:10257800FA689A607B68DB6AFB60FB6823F4700387
:10258800FB603B681B7D03F1FF33DAB2FB7A134330
:10259800FB72FB7A4FEA0353FA681343FB607B68CC
:1025A800FA68DA6207F11407BD4680BC704700BFBD
:1025B80080B485B000AF78604FF00003FB604FF443
:1025C8000C53C4F201035B68FB60FA6843F2E00352
:1025D800CFF6FC731340FB607B681A687B685B6806
:1025E8001A437B689B681A437B68DB681343FA6865
:1025F8001343FB604FF40C53C4F20103FA685A60AA
:1026080007F11407BD4680BC704700BF80B483B093
:1026180000AF78600B46FB70FB78002B06D07B6818
:102628009B6843F001027B689A6005E07B689B68C1
:1026380023F001027B689A6007F10C07BD4680BC55
:10264800704700BF80B485B000AF7860F970BA7089
:102658007B704FF00003FB604FF00003BB60FB781A
:10266800092B27D97B68DB68FB60FA7813464FEAA9
:1026780043039B18A3F11E034FF0070202FA03F36A
:10268800BB60BB686FEA0303FA681340FB607978A4
:10269800FA7813464FEA43039B18A3F11E0301FA85
:1026A80003F3BB60FA68BB681343FB607B68FA6896
:1026B800DA6022E07B681B69FB60FA7813464FEA10
:1026C80043039B184FF0070202FA03F3BB60BB6891
:1026D8006FEA0303FA681340FB607978FA781346C7
:1026E8004FEA43039B1801FA03F3BB60FA68BB681F
:1026F8001343FB607B68FA681A61BB78062B27D8FE
:102708007B685B6BFB60BB7803F1FF3213464FEAD3
:1027180083039B184FF01F0202FA03F3BB60BB68E8
:102728006FEA0303FA681340FB60F978BB7803F19A
:10273800FF3213464FEA83039B1801FA03F3BB6089
:10274800FA68BB681343FB607B68FA685A6351E018
:10275800BB780C2B27D87B681B6BFB60BA781346B9
:102768004FEA83039B18A3F123034FF01F0202FAD9
:1027780003F3BB60BB686FEA0303FA681340FB60AE
:10278800F978BA7813464FEA83039B18A3F1230319
:1027980001FA03F3BB60FA68BB681343FB607B680C
:1027A800FA681A6326E07B68DB6AFB60BA7813462E
:1027B8004FEA83039B18A3F141034FF01F0202FA6B
:1027C80003F3BB60BB686FEA0303FA681340FB605E
:1027D800F978BA7813464FEA83039B18A3F14103AB
:1027E80001FA03F3BB60FA68BB681343FB607B68BC
:1027F800FA68DA6207F11407BD4680BC704700BF6B
:1028080080B483B000AF78607B689B6843F08042F7
:102818007B689A6007F10C07BD4680BC704700BF13
:1028280080B483B000AF78600B46FB70FB78002B58
:1028380006D07B689B6843F480727B689A6005E0E9
:102848007B689B6823F480727B689A6007F10C07A9
:10285800BD4680BC704700BF80B483B000AF7860CD
:102868000B46FB70FB78002B06D07B689B6843F413
:1028780000727B689A6005E07B689B6823F40072AD
:102888007B689A6007F10C07BD4680BC704700BFA3
:1028980038B50E4D0E4BE81A85100024AC4205D011
:1028A8000B4951F8242090470134F7E700F016F857
:1028B8000849094A541AA5100024AC4205D0054B12
:1028C80053F8240080470134F7E738BDFC28000896
:1028D800FC280008FC28000800290008F8B500BFFB
:1028E800F8BC08BC9E467047F8B500BFF8BC08BCE9
:0428F8009E46704741
:0428FC00AD01000822
:042900008901000841
:04290400007A030A48
:0400000508000D39A9
:00000001FF
